:100000000C945E000C9486000C9486000C94860080
:100010000C9486000C9486000C9486000C94860048
:100020000C9486000C9486000C9430040C94DA0432
:100030000C94E9030C9486000C9486000C948600C2
:100040000C9447030C9486000C94B7030C94910312
:100050000C9486000C9486000C9486000C94860008
:100060000C9486000C9486000000000024002700F9
:100070002A0000000000250028002B0004040404CE
:100080000404040402020202020203030303030342
:10009000010204081020408001020408102001021F
:1000A00004081020000000080002010000030407FB
:1000B00000000000000000007305890A11241FBE23
:1000C000CFEFD8E0DEBFCDBF11E0A0E0B1E0EEECB5
:1000D000F5E102C005900D92AE33B107D9F722E0E9
:1000E000AEE3B1E001C01D92A13FB207E1F710E01D
:1000F000CDE5D0E004C02197FE010E94CF0ACC35A7
:10010000D107C9F70E940A060C94DA0A0C94000081
:1001100090E0FC01EC55FF4F2491FC01E057FF4FAC
:100120003491FC01E458FF4FE491EE2309F43CC004
:10013000222339F1233091F038F42130A9F0223014
:1001400001F584B58F7D12C0273091F02830A1F0E1
:100150002430B9F4809180008F7D03C080918000AD
:100160008F77809380000DC084B58F7784BD09C0E0
:100170008091B0008F7703C08091B0008F7D809315
:10018000B000F0E0EE0FFF1FEE58FF4FA591B491C5
:100190009FB7F894611104C08C913095382302C048
:1001A000EC913E2B3C939FBF0895CF93DF9390E05B
:1001B000FC01E057FF4F2491FC01E458FF4F84916C
:1001C000882361F190E0880F991FFC01E859FF4FE7
:1001D000C591D491FC01EE58FF4FA591B4916111E6
:1001E00009C09FB7F8948881209582238883EC9179
:1001F0002E230BC0623061F49FB7F8948881322FB0
:10020000309583238883EC912E2B2C939FBF06C0BF
:100210008FB7F894E8812E2B28838FBFDF91CF9181
:100220000895CF93DF93CFE6D0E01882109280003C
:1002300081E88093810081E493E09093FF018093B3
:10024000FE0189E19EE19093FD018093FC0162E053
:1002500088E00E94D50061E089E00E94880061E0AA
:1002600089E00E94D5001092FB011092FA011092D1
:10027000F9011092F8011092F7011092F60180E254
:1002800086BB8883DF91CF9108952FB7F894609152
:10029000F2017091F3018091F4019091F5012FBF6B
:1002A000089581FB442740F984FB332730F983FB11
:1002B000992790F9232F2427292785FB992790F93F
:1002C00029272095220F82FB992790F94927982FFB
:1002D0009170842F89278327822B8295880F880F1E
:1002E000807C0895CF92DF92EF92FF920F931F933D
:1002F000CF93DF936C017A018B01C0E0D0E0CE1583
:10030000DF0581F0D8016D918D01D601ED91FC9151
:100310000190F081E02DC6010995892B11F02196FD
:10032000EECF7E01C701DF91CF911F910F91FF901A
:10033000EF90DF90CF900895FC01538D448D252FD1
:1003400030E0842F90E0821B930B541710F0CF966F
:10035000089501970895FC01918D828D981761F0A1
:10036000828DDF01A80FB11D5D968C91928D9F5FEC
:100370009F73928F90E008958FEF9FEF0895FC0197
:10038000918D828D981731F0828DE80FF11D858D4A
:1003900090E008958FEF9FEF0895FC01918D228DDD
:1003A000892F90E0805C9F4F821B91098F73992762
:1003B000089580E092E00E94CD0121E0892B09F4AC
:1003C00020E0822F0895FC01848DDF01A80FB11D6C
:1003D000A35ABF4F2C91848D90E001968F7399277B
:1003E000848FA689B7892C93A089B1898C91837059
:1003F00080648C93938D848D981306C00288F38952
:10040000E02D80818F7D80830895EF92FF920F937E
:100410001F93CF93DF93EC0181E0888F9B8D8C8DB0
:10042000981305C0E889F989808185FD26C0F62EDC
:100430000B8D10E00F5F1F4F0F731127E02E8C8D77
:10044000E8120CC00FB607FCFACFE889F989808161
:1004500085FFF5CFCE010E94E301F1CF8B8DFE0128
:10046000E80FF11DE35AFF4FF0829FB7F8940B8F0E
:10047000EA89FB89808180620AC09FB7F894EE897F
:10048000FF896083E889F989808183708064808333
:100490009FBF81E090E0DF91CF911F910F91FF907E
:1004A000EF900895CF93DF93EC01888D8823C9F0F6
:1004B000EA89FB89808185FD05C0A889B9898C916D
:1004C00086FD0FC00FB607FCF5CF808185FFF2CF08
:1004D000A889B9898C9185FFEDCFCE010E94E301F7
:1004E000E7CFDF91CF91089580E090E0892B29F04C
:1004F0000E94D90181110C94000008955091F701D8
:100500004091F601842F90E0252F30E0541710F031
:100510008C5B9F4F821B930B08955091FA01409181
:10052000F901852F90E0242F30E0541710F4805B00
:100530009F4F821B930B08958091FA01E091F9017E
:100540008E1751F0EF5FE03508F0E0E0F0E0E8579B
:10055000FE4F808190E008958FEF9FEF0895809186
:10056000FA019091F901891769F09F5F903508F0C1
:1005700090E0E92FF0E0E857FE4F80819093F90179
:1005800090E008958FEF9FEF08958091F801811119
:10059000FCCF08959091F7019F5F943408F090E0AC
:1005A0002091F6012917E1F32FB7F8943091F80163
:1005B000332341F0E92FF0E0E25CFE4F808390931B
:1005C000F7011DC091E09093F80180938301109290
:1005D000820182E086BB80916F00826080936F0011
:1005E000809180008F7B8068809380008091840060
:1005F00090918500409690938900809388002FBF4A
:100600000895CF93DF93CFE6D0E088818B7F8883F6
:1006100088818F7D88838091F9018093FA010E94FF
:10062000C50288818D7F8883DF91CF9108950C94D6
:10063000C502862F0E94CA0281E090E008950F93C0
:100640001F93CF93DF93C82F8B01D42F0E945101AA
:100650008C2B90E0F801D15020F02191820F911D58
:10066000FACF292F33272115310529F0A901480F89
:10067000511DCA01F6CF8095DF91CF911F910F9147
:100680000895089580E090E008950E94D50A1F9291
:100690000F920FB60F9211242F933F938F939F9336
:1006A000AF93BF938091F2019091F301A091F40177
:1006B000B091F5013091F10123E0230F2D3720F4A3
:1006C0000196A11DB11D05C026E8230F0296A11DAC
:1006D000B11D2093F1018093F2019093F301A09357
:1006E000F401B093F5018091ED019091EE01A0919C
:1006F000EF01B091F0010196A11DB11D8093ED01B4
:100700009093EE01A093EF01B093F001BF91AF91F0
:100710009F918F913F912F910F900FBE0F901F903F
:1007200018951F920F920FB60F9211242F933F939B
:100730004F935F936F937F938F939F93AF93BF93E9
:10074000EF93FF9380E092E00E94E301FF91EF912D
:10075000BF91AF919F918F917F916F915F914F91D9
:100760003F912F910F900FBE0F901F9018951F92E1
:100770000F920FB60F9211242F938F939F93EF93A5
:10078000FF93E0911002F09111028081E091160236
:10079000F091170282FD12C09081809119028F5F43
:1007A0008F7320911A02821751F0E0911902F0E044
:1007B000E050FE4F958F8093190201C08081FF9118
:1007C000EF919F918F912F910F900FBE0F901F90DF
:1007D00018951F920F920FB60F9211242F938F939B
:1007E0009F93EF93FF9380916F008B7F80936F00B7
:1007F000809181008F7B809381008091FB0120910B
:100800008701205890918601893020F49695922B8B
:100810008F5FFACF909386018091FA018F5F8035C8
:1008200008F080E02091F901821739F0E82FF0E01C
:10083000E857FE4F90838093FA011092FB0180915C
:1008400081008F7B8093810010928701FF91EF914F
:100850009F918F912F910F900FBE0F901F90189521
:100860001F920F920FB60F9211242F933F934F9325
:100870005F936F937F938F939F93AF93BF93EF9308
:10088000FF9380918600909187004091870120918D
:100890008100442331F02F7B209381001092870147
:1008A00006C020642093810020E8209387013091C6
:1008B000FB01311125C041116CC02091FC01309128
:1008C000FD01280F391F30938B0020938A0024E00C
:1008D00026BB20916F00246020936F002091FE01C1
:1008E0003091FF01820F931F36952795820F931F3A
:1008F000909385018093840181E08093FB0149C03E
:1009000040918401509185016091FE017091FF0139
:10091000DB01A095B09520918601E0918701841BB1
:10092000950BA817B90768F126952E2B460F571F70
:100930003F5F861B970B3930A0F32093860180918F
:100940006F008B7F80936F008091FA018F5F8035FD
:1009500008F080E09091F901891749F0E82FF0E064
:1009600090918601E857FE4F90838093FA01809121
:1009700081008F7B80938100109287011092FB0190
:1009800008C02093860150938501409384013093E1
:10099000FB01FF91EF91BF91AF919F918F917F915B
:1009A0006F915F914F913F912F910F900FBE0F90DC
:1009B0001F9018951F920F920FB60F9211242F932C
:1009C0003F934F935F936F937F938F939F93EF9397
:1009D000FF938091F801609183012091880030910C
:1009E00089004091FE015091FF01909182018A306F
:1009F000F8F4240F351F893019F0762F717001C07B
:100A000071E066958F5F791791F39091800077235D
:100A100011F0906C02C09F7B90689093800030939F
:100A200089002093880070938201609383014AC0FB
:100A30009091F701E091F6019E1319C08A3051F4AC
:100A40008BE08093F801240F351F309389002093A9
:100A500088003AC01092F801809180008F738093D3
:100A6000800080916F008D7F80936F002DC0EF5FBD
:100A7000E43408F0E0E0E093F601F0E0E25CFE4FE1
:100A800090819093830110928201909180009F7BCE
:100A90009068909380008A3059F48091FE01909183
:100AA000FF01280F391F309389002093880009C067
:100AB0008091840090918500409690938900809366
:100AC000880081E08093F801FF91EF919F918F91D1
:100AD0007F916F915F914F913F912F910F900FBE3A
:100AE0000F901F901895CF92DF92EF92FF920F9385
:100AF0001F93CF93DF93E0E0F2E01382128288EE3F
:100B0000C82E83E0D82EE12CF12CC482D582E68257
:100B1000F7828EE191E09183808385EC90E0958768
:100B2000848784EC90E09787868780EC90E0918BB7
:100B3000808B81EC90E0938B828B82EC90E0958BA4
:100B4000848B86EC90E0978B868B118E128E138EA1
:100B5000148EC7EDD2E01882198218861D861E8A6F
:100B60001F8A188E198E1FEF1E871F86188B80EF25
:100B7000898B80E68A8B1B8A80E38C8B1D8A1A8284
:100B800009EF0B831C831D830E9445016E8B7F8BB5
:100B9000888F998FEAEAF2E0108211821382128222
:100BA00088E0848789E0858787E08687128A118AB2
:100BB000C38AD48AE58AF68A80E391E0908B87879E
:100BC000138E148E158E168E178E10A211A212A2DD
:100BD00013A214A61482058316831783EDE9F2E0AD
:100BE0008AE080838BE081838CE082838EE0838344
:100BF0008DE084838FE0858380E1868381E1878334
:100C00001086DF91CF911F910F91FF90EF90DF90B1
:100C1000CF900895CF93DF9300D000D01F92CDB72F
:100C2000DEB7789484B5826084BD84B5816084BD6C
:100C300085B5826085BD85B5816085BD80916E007A
:100C4000816080936E0010928100809181008260AB
:100C500080938100809181008160809381008091E8
:100C600080008160809380008091B10084608093D7
:100C7000B1008091B00081608093B00080917A00D3
:100C8000846080937A0080917A00826080937A00F9
:100C900080917A00816080937A0080917A008068E8
:100CA00080937A001092C10061E080919D020E94C1
:100CB000D50061E08091A0020E94D50061E08091A2
:100CC000A1020E94D50061E080919E020E94D500A1
:100CD00061E080919F020E94D50061E08091A202B4
:100CE0000E94D50061E08091A3020E94D50061E0DE
:100CF0008091A4020E94D50080E090E00E94910AB9
:100D000091E0811101C090E09093A5021092A6029B
:100D10001092A7021092A8021092A902E09110026C
:100D2000F091110282E08083E0910C02F0910D02BB
:100D30001082E0910E02F0910F0287E680831092FC
:100D40001802E0911402F091150286E08083E09190
:100D50001202F0911302808180618083E09112027F
:100D6000F0911302808188608083E0911202F091FB
:100D70001302808180688083E0911202F091130257
:100D800080818F7D808361E08091B8020E94D500D0
:100D900061E08091B8020E9488008091F9018093FF
:100DA000FA011092B3021092B20282E090E09093A6
:100DB000B5028093B40261E083E00E94D50061E057
:100DC00084E00E94D5005524539432E0632E712CA8
:100DD00001E010E043E0E42EF12C53EBC52E5BE084
:100DE000D52E6BE8A62EBB24B3948091E50181112A
:100DF00004C00E9445015092E5010E9445012091E6
:100E0000ED023091EE024091EF025091F002DC01D0
:100E1000CB01821B930BA40BB50B85369105A10565
:100E2000B10550F00E9445016093ED027093EE020F
:100E30008093EF029093F00280E092E00E94CD0157
:100E4000892B09F4C0C00E9445016093ED027093A4
:100E5000EE028093EF029093F00280E092E00E9415
:100E6000AB018A838091DD029091DE028130910591
:100E7000A9F040F08230910509F46CC0039709F4A1
:100E800081C0DACF2A812535B9F62093E00210928D
:100E9000E4021093DE020093DD02CECF8A818F73CD
:100EA0008093DF028E3009F043C080E092E00E9420
:100EB000CD01892BC1F584E090E09093DE02809310
:100EC000DD028091E50290E001966FE070E00E9403
:100ED000A70A806F8093E5028091D7028093E60293
:100EE0008091D80280638093EB0248E065EE72E067
:100EF0008EE00E941F03482EA5EEB2E0BD83AC83B6
:100F0000EC81FD816191FD83EC8380E092E00E94A1
:100F100005022C813D812D5E324091F7642D80E0E9
:100F200092E00E9405021092DE021092DD0284CF50
:100F30008D3029F47092DE026092DD027DCF80E078
:100F400092E00E94CD01892B71F380E092E00E9433
:100F5000AB01F5CFE091E40281E08E0F8093E402D3
:100F6000F0E0E952FD4F9A8191879091DF029D3028
:100F700009F062CF843009F05FCFF092DE02E09298
:100F8000DD025ACFA091DF02A9834091E40260EE16
:100F900072E08A2F0E941F03BA81B813C4CFE9817F
:100FA000ED3009F68091E0029091E102A091E20219
:100FB000B091E3028093D9029093DA02A093DB020E
:100FC000B093DC02B0CF8091D90281118AE1809385
:100FD000AE028091B2029091B3028230910509F481
:100FE0009DC030F4009761F0019709F44BC063C1D4
:100FF0008330910509F4BEC0049709F41CC15BC19C
:101000000E9445012091C6023091C7024091C8025A
:101010005091C902621773078407950709F455C1F7
:101020001092C5021092CA021092CB021092CC020A
:101030001092CD0288E0EEECF2E0DF011D928A957D
:10104000E9F71092D6028091B4029091B502019610
:1010500063E070E00E94A70A9093B5028093B40207
:101060008230910528F41093B3020093B20223C199
:10107000029709F020C1E4E0F0E0F093B302E093BE
:10108000B20219C18091B4029091B502892B19F076
:10109000FFE0F98302C02EE0298339813093C50235
:1010A0001092D602832F0E945101882E60E0809119
:1010B000B7020E948800C6010197F1F761E08091B4
:1010C000B7020E948800C5010197F1F70E94110143
:1010D00085E50E94CA02898188290E94CA020E946D
:1010E000C5028091F9018093FA010E944501609345
:1010F000CA027093CB028093CC029093CD020E94DF
:1011000045016093CA027093CB028093CC02909306
:10111000CD027092B3026092B202CDC089EB92E030
:101120000E948D02892B61F189EB92E00E94AF024F
:10113000E091D60291E09E0F9093D602F0E0E65542
:10114000FD4F84A3983058F0983029F4F092B30200
:10115000E092B20204C01092B3021092B2020E9456
:1011600045016093CA027093CB028093CC029093A6
:10117000CD02A1C089EB92E00E948D02892BB1F4CF
:101180000E9445012091CA023091CB024091CC02CD
:101190005091CD02DC01CB01821B930BA40BB50B4C
:1011A0000B97A105B10508F486C081C089EB92E0D8
:1011B0000E94AF02982E4091D6026EEC72E08091B0
:1011C000C5020E941F03891172C08091B4029091E0
:1011D000B502009751F48091CF028093AA028091CA
:1011E000D4028F708093AB0262C0019709F05FC098
:1011F0008091CF029091D00290FD0EC093FD0EC061
:1012000084FD0EC092FD0EC091FD0EC0892F80722C
:1012100095FF0BC087E009C081E007C082E005C0F0
:1012200083E003C085E001C086E090E09093AD02CA
:101230008093AC023CC08091B4029091B5020297B9
:10124000B1F544E06EEA72E08DE00E941F03482E83
:1012500060E08091B7020E948800C6010197F1F713
:1012600061E08091B7020E948800C5010197F1F703
:101270000E94110185E50E94CA028DE00E94CA0207
:101280008EEA92E09D838C83AC81BD818D91BD837C
:10129000AC830E94CA02EC81FD81E25BF240A1F7BF
:1012A000842D0E94CA020E94C5020E94010310926E
:1012B000B3021092B2020E9445016093C60270937D
:1012C000C7028093C8029093C9028091D90290917D
:1012D000DA02A091DB02B091DC028093AE0290931F
:1012E000AF02A093B002B093B1023091AA02398349
:1012F0003093D7028091AB028093D802E0E0F1E016
:1013000080E090E02181A981A21309C0880F991F74
:10131000FC01E050FF4F80818093D70205C0019609
:1013200032968D30910571F760E083E00E9488006D
:1013300061E0B981BC3009F060E084E00E9488007F
:10134000E091AC02EB838091DD01811104C00E9429
:1013500045015092DD010E9445016093D9017093CF
:10136000DA018093DB019093DC01FB81F33081F49F
:101370008091D801811121C05092D8016091A502BD
:1013800065256093A50280E090E00E94990A15C04F
:101390001092D8012B81273081F40E944501DC0195
:1013A000CB0188519C4FAF4FBF4F8093A6029093C3
:1013B000A702A093A802B093A9024091A60250915F
:1013C000A7026091A8027091A9028091D901909121
:1013D000DA01A091DB01B091DC0184179507A60723
:1013E000B707A8F48B818550823088F40E944501AC
:1013F000DC01CB0188519C4FAF4FBF4F8093A602B9
:101400009093A702A093A802B093A90205C03B81C4
:10141000332369F0333059F08091A502811107C060
:101420005092A50261E080E090E00E94990A20902D
:10143000A50281E08A839B81923009F01A82409153
:10144000A6025091A7026091A8027091A902809112
:10145000D9019091DA01A091DB01B091DC0148172C
:1014600059076A077B0760F433243394EB81E63035
:1014700009F0312C44244394FB81F53011F402C06F
:10148000312C412C84179507A607B70748F4882408
:1014900083942B81263029F0812C253011F409C04A
:1014A000812C31E039838B81813009F01982912CB4
:1014B00003C0992493941982622D80919D020E9409
:1014C00088006A818091A0020E948800622D80912C
:1014D000A1020E948800632D80919E020E948800D4
:1014E000642D80919F020E948800682D8091A20245
:1014F0000E948800692D8091A3020E948800698162
:101500008091A4020E9488000E9445010E947402FA
:101510006CCC80E391E09093BA028093B9020C9472
:101520000103F999FECF92BD81BDF89A992780B544
:101530000895262FF999FECF1FBA92BD81BD20BD17
:101540000FB6F894FA9AF99A0FBE0196089597FB90
:10155000072E16F4009407D077FD09D00E94BB0A2D
:1015600007FC05D03EF4909581959F4F08957095A6
:1015700061957F4F0895AA1BBB1B51E107C0AA1FAD
:10158000BB1FA617B70710F0A61BB70B881F991F24
:101590005A95A9F780959095BC01CD010895EE0F5D
:1015A000FF1F0590F491E02D099481E090E0F894FC
:1015B0000C94DA0A10E0CDE5D0E004C0FE010E94F0
:0E15C000CF0A2196CE35D107C9F7F894FFCF98
:1015CE000000031602152B191A1C1A2322042305D8
:1015DE0009030A0228070610071100000000050281
:1015EE0072019C015202CD01AB01BF01000000004F
:0E15FE00190372017E0217038D02AF029C02D8
:00000001FF
