:100000000C945E000C9486000C9486000C94860080
:100010000C9486000C9486000C9486000C94860048
:100020000C9486000C9486000C9430040C94DA0432
:100030000C94E9030C9486000C9486000C948600C2
:100040000C9447030C9486000C94B7030C94910312
:100050000C9486000C9486000C9486000C94860008
:100060000C9486000C9486000000000024002700F9
:100070002A0000000000250028002B0004040404CE
:100080000404040402020202020203030303030342
:10009000010204081020408001020408102001021F
:1000A00004081020000000080002010000030407FB
:1000B00000000000000000007305DC0911241FBED1
:1000C000CFEFD8E0DEBFCDBF11E0A0E0B1E0E4E7C4
:1000D000F4E102C005900D92AA34B107D9F722E0ED
:1000E000AAE4B1E001C01D92AC3EB207E1F710E016
:1000F000CDE5D0E004C02197FE010E94220ACC3554
:10010000D107C9F70E94F7050C942D0A0C94000042
:1001100090E0FC01EC55FF4F2491FC01E057FF4FAC
:100120003491FC01E458FF4FE491EE2309F43CC004
:10013000222339F1233091F038F42130A9F0223014
:1001400001F584B58F7D12C0273091F02830A1F0E1
:100150002430B9F4809180008F7D03C080918000AD
:100160008F77809380000DC084B58F7784BD09C0E0
:100170008091B0008F7703C08091B0008F7D809315
:10018000B000F0E0EE0FFF1FEE58FF4FA591B491C5
:100190009FB7F894611104C08C913095382302C048
:1001A000EC913E2B3C939FBF0895CF93DF9390E05B
:1001B000FC01E057FF4F2491FC01E458FF4F84916C
:1001C000882361F190E0880F991FFC01E859FF4FE7
:1001D000C591D491FC01EE58FF4FA591B4916111E6
:1001E00009C09FB7F8948881209582238883EC9179
:1001F0002E230BC0623061F49FB7F8948881322FB0
:10020000309583238883EC912E2B2C939FBF06C0BF
:100210008FB7F894E8812E2B28838FBFDF91CF9181
:100220000895CF93DF93CFE6D0E01882109280003C
:1002300081E88093810081E493E0909307028093AA
:10024000060289E19EE1909305028093040262E038
:1002500088E00E94D50061E089E00E94880061E0AA
:1002600089E00E94D50010920302109202021092BF
:100270000102109200021092FF011092FE0180E232
:1002800086BB8883DF91CF9108952FB7F894609152
:10029000FA017091FB018091FC019091FD012FBF4B
:1002A000089581FB442740F984FB332730F983FB11
:1002B000992790F9232F2427292785FB992790F93F
:1002C00029272095220F82FB992790F94927982FFB
:1002D0009170842F89278327822B8295880F880F1E
:1002E000807C0895CF92DF92EF92FF920F931F933D
:1002F000CF93DF936C017A018B01C0E0D0E0CE1583
:10030000DF0581F0D8016D918D01D601ED91FC9151
:100310000190F081E02DC6010995892B11F02196FD
:10032000EECF7E01C701DF91CF911F910F91FF901A
:10033000EF90DF90CF900895FC01538D448D252FD1
:1003400030E0842F90E0821B930B541710F0CF966F
:10035000089501970895FC01918D828D981761F0A1
:10036000828DDF01A80FB11D5D968C91928D9F5FEC
:100370009F73928F90E008958FEF9FEF0895FC0197
:10038000918D828D981731F0828DE80FF11D858D4A
:1003900090E008958FEF9FEF0895FC01918D228DDD
:1003A000892F90E0805C9F4F821B91098F73992762
:1003B000089588E092E00E94CD0121E0892B09F4A4
:1003C00020E0822F0895FC01848DDF01A80FB11D6C
:1003D000A35ABF4F2C91848D90E001968F7399277B
:1003E000848FA689B7892C93A089B1898C91837059
:1003F00080648C93938D848D981306C00288F38952
:10040000E02D80818F7D80830895EF92FF920F937E
:100410001F93CF93DF93EC0181E0888F9B8D8C8DB0
:10042000981305C0E889F989808185FD26C0F62EDC
:100430000B8D10E00F5F1F4F0F731127E02E8C8D77
:10044000E8120CC00FB607FCFACFE889F989808161
:1004500085FFF5CFCE010E94E301F1CF8B8DFE0128
:10046000E80FF11DE35AFF4FF0829FB7F8940B8F0E
:10047000EA89FB89808180620AC09FB7F894EE897F
:10048000FF896083E889F989808183708064808333
:100490009FBF81E090E0DF91CF911F910F91FF907E
:1004A000EF900895CF93DF93EC01888D8823C9F0F6
:1004B000EA89FB89808185FD05C0A889B9898C916D
:1004C00086FD0FC00FB607FCF5CF808185FFF2CF08
:1004D000A889B9898C9185FFEDCFCE010E94E301F7
:1004E000E7CFDF91CF91089580E090E0892B29F04C
:1004F0000E94D90181110C94000008955091FF01D0
:100500004091FE01842F90E0252F30E0541710F029
:100510008C5B9F4F821B930B089550910202409178
:100520000102852F90E0242F30E0541710F4805BF7
:100530009F4F821B930B089580910202E09101026C
:100540008E1751F0EF5FE03508F0E0E0F0E0EC5698
:10055000FE4F808190E008958FEF9FEF0895809186
:10056000020290910102891769F09F5F903508F0AF
:1005700090E0E92FF0E0EC56FE4F8081909301026D
:1005800090E008958FEF9FEF089580910002811110
:10059000FCCF08959091FF019F5F943408F090E0A4
:1005A0002091FE012917E1F32FB7F8943091000252
:1005B000332341F0E92FF0E0E65BFE4F8083909318
:1005C000FF011DC091E09093000280938F01109273
:1005D0008E0182E086BB80916F00826080936F0005
:1005E000809180008F7B8068809380008091840060
:1005F00090918500409690938900809388002FBF4A
:100600000895CF93DF93CFE6D0E088818B7F8883F6
:1006100088818F7D888380910102809302020E94ED
:10062000C50288818D7F8883DF91CF9108950C94D6
:10063000C502862F0E94CA0281E090E008950F93C0
:100640001F93CF93DF93C82F8B01D42F0E945101AA
:100650008C2B90E0F801D15020F02191820F911D58
:10066000FACF292F33272115310529F0A901480F89
:10067000511DCA01F6CF8095DF91CF911F910F9147
:100680000895089580E090E008950E94280A1F923E
:100690000F920FB60F9211242F933F938F939F9336
:1006A000AF93BF938091FA019091FB01A091FC015F
:1006B000B091FD013091F90123E0230F2D3720F493
:1006C0000196A11DB11D05C026E8230F0296A11DAC
:1006D000B11D2093F9018093FA019093FB01A0933F
:1006E000FC01B093FD018091F5019091F601A0917C
:1006F000F701B091F8010196A11DB11D8093F5019C
:100700009093F601A093F701B093F801BF91AF91D8
:100710009F918F913F912F910F900FBE0F901F903F
:1007200018951F920F920FB60F9211242F933F939B
:100730004F935F936F937F938F939F93AF93BF93E9
:10074000EF93FF9388E092E00E94E301FF91EF9125
:10075000BF91AF919F918F917F916F915F914F91D9
:100760003F912F910F900FBE0F901F9018951F92E1
:100770000F920FB60F9211242F938F939F93EF93A5
:10078000FF93E0911802F09119028081E0911E021E
:10079000F0911F0282FD12C09081809121028F5F33
:1007A0008F7320912202821751F0E0912102F0E034
:1007B000E85FFD4F958F8093210201C08081FF91FA
:1007C000EF919F918F912F910F900FBE0F901F90DF
:1007D00018951F920F920FB60F9211242F938F939B
:1007E0009F93EF93FF9380916F008B7F80936F00B7
:1007F000809181008F7B8093810080910302209102
:100800009301205890919201893020F49695922B73
:100810008F5FFACF90939201809102028F5F8035B3
:1008200008F080E020910102821739F0E82FF0E013
:10083000EC56FE4F90838093020210920302809147
:1008400081008F7B8093810010929301FF91EF9143
:100850009F918F912F910F900FBE0F901F90189521
:100860001F920F920FB60F9211242F933F934F9325
:100870005F936F937F938F939F93AF93BF93EF9308
:10088000FF93809186009091870040919301209181
:100890008100442331F02F7B20938100109293013B
:1008A00006C020642093810020E8209393013091BA
:1008B0000302311125C041116CC020910402309116
:1008C0000502280F391F30938B0020938A0024E003
:1008D00026BB20916F00246020936F0020910602B8
:1008E00030910702820F931F36952795820F931F31
:1008F000909391018093900181E08093030249C01D
:10090000409190015091910160910602709107020F
:10091000DB01A095B09520919201E0919301841B99
:10092000950BA817B90768F126952E2B460F571F70
:100930003F5F861B970B3930A0F320939201809183
:100940006F008B7F80936F00809102028F5F8035F4
:1009500008F080E090910102891749F0E82FF0E05B
:1009600090919201EC56FE4F908380930202809109
:1009700081008F7B8093810010929301109203027B
:1009800008C02093920150939101409390013093BD
:100990000302FF91EF91BF91AF919F918F917F9152
:1009A0006F915F914F913F912F910F900FBE0F90DC
:1009B0001F9018951F920F920FB60F9211242F932C
:1009C0003F934F935F936F937F938F939F93EF9397
:1009D000FF938091000260918F01209188003091F7
:1009E0008900409106025091070290918E018A3051
:1009F000F8F4240F351F893019F0762F717001C07B
:100A000071E066958F5F791791F39091800077235D
:100A100011F0906C02C09F7B90689093800030939F
:100A200089002093880070938E0160938F014AC0E3
:100A30009091FF01E091FE019E1319C08A3051F49C
:100A40008BE080930002240F351F309389002093A0
:100A500088003AC010920002809180008F738093CA
:100A6000800080916F008D7F80936F002DC0EF5FBD
:100A7000E43408F0E0E0E093FE01F0E0E65BFE4FD6
:100A8000908190938F0110928E01909180009F7BB6
:100A90009068909380008A3059F48091060290917A
:100AA0000702280F391F309389002093880009C05E
:100AB0008091840090918500409690938900809366
:100AC000880081E080930002FF91EF919F918F91C8
:100AD0007F916F915F914F913F912F910F900FBE3A
:100AE0000F901F901895CF92DF92EF92FF920F9385
:100AF0001F93CF93DF93E8E0F2E01382128288EE37
:100B0000C82E83E0D82EE12CF12CC482D582E68257
:100B1000F78289E291E09183808385EC90E095876C
:100B2000848784EC90E09787868780EC90E0918BB7
:100B3000808B81EC90E0938B828B82EC90E0958BA4
:100B4000848B86EC90E0978B868B118E128E138EA1
:100B5000148EC2EDD2E01882198218861D861E8A74
:100B60001F8A188E198E1FEF1E871F86188B80EF25
:100B7000898B80E68A8B1B8A80E38C8B1D8A1A8284
:100B800009EF0B831C831D830E9445016E8B7F8BB5
:100B9000888F998FE5EAF2E0108211821382128227
:100BA00088E0848789E0858787E08687128A118AB2
:100BB000C38AD48AE58AF68A8BE391E0908B878793
:100BC000138E148E158E168E178E10A211A212A2DD
:100BD00013A214A61482058316831783DF91CF9185
:100BE0001F910F91FF90EF90DF90CF900895789430
:100BF00084B5826084BD84B5816084BD85B5826022
:100C000085BD85B5816085BD80916E0081608093D2
:100C10006E0010928100809181008260809381003B
:100C2000809181008160809381008091800081604B
:100C3000809380008091B10084608093B1008091A6
:100C4000B00081608093B00080917A0084608093CE
:100C50007A0080917A00826080937A0080917A0095
:100C6000816080937A0080917A00806880937A0016
:100C70001092C10061E0809100010E94D50061E006
:100C8000809103010E94D50061E0809104010E94DF
:100C9000D50061E0809101010E94D50061E0809162
:100CA00002010E94D50061E0809105010E94D500FB
:100CB00061E0809106010E94D50061E0809107010A
:100CC0000E94D50080E090E00E94E40991E081114B
:100CD00001C090E090930801E0911802F091190290
:100CE00082E08083E0911402F09115021082E0917D
:100CF0001602F091170287E6808310922002E0919D
:100D00001C02F0911D0286E08083E0911A02F091AE
:100D10001B02808180618083E0911A02F0911B02A6
:100D2000808188608083E0911A02F0911B028081AB
:100D300080688083E0911A02F0911B0280818F7D90
:100D4000808361E08091B3020E94D50061E08091D0
:100D5000B3020E94880080910102809302021092E7
:100D6000AE021092AD0282E090E09093B0028093C8
:100D7000AF02D1E052E0652E712C01E010E063E09B
:100D8000E62EF12C73EBC72E7BE0D72EEBE8AE2ED0
:100D9000BB24B3948091ED01811104C00E944501F0
:100DA000D093ED010E9445012091E8023091E902C3
:100DB0004091EA025091EB02DC01CB01821B930BC4
:100DC000A40BB50B85369105A105B10550F00E9425
:100DD00045016093E8027093E9028093EA029093E0
:100DE000EB0288E092E00E94CD01892B09F4BAC0A1
:100DF0000E9445016093E8027093E9028093EA0241
:100E00009093EB0288E092E00E94AB01982E8091D3
:100E1000D8029091D90281309105A9F040F082303A
:100E2000910509F46AC0039709F47EC0DACF85E51D
:100E30009812D7CF9092DB021092DF021093D90262
:100E40000093D802CECF892D8F738093DA028E3033
:100E500009F041C088E092E00E94CD01892BB1F5F4
:100E6000A4E0B0E0B093D902A093D8028091E00250
:100E700090E001966FE070E00E94FA09806F809325
:100E8000E0028091D2028093E1028091D3028063DC
:100E90008093E60248E060EE72E08EE00E941F035D
:100EA000482E40EE842E42E0942EF40161914F01D1
:100EB00088E092E00E940502F8EE8F16F2E09F06AD
:100EC000A1F7642D88E092E00E9405021092D902F9
:100ED0001092D80286CF8D3029F47092D902609298
:100EE000D8027FCF88E092E00E94CD01892B71F378
:100EF00088E092E00E94AB01F5CFE091DF0281E053
:100F00008E0F8093DF02F0E0EE52FD4F91869091BC
:100F1000DA029D3009F065CF843009F062CFF0929B
:100F2000D902E092D8025DCFC091DA024091DF028F
:100F30006BED72E08C2F0E941F039812C7CFCD304B
:100F400029F68091DB029091DC02A091DD02B09144
:100F5000DE028093D4029093D502A093D602B09380
:100F6000D702B4CF8091D40281118AE18093A90283
:100F70008091AD029091AE028230910509F49AC041
:100F800030F4009761F0019709F44BC062C18330DF
:100F9000910509F4BBC0049709F41DC15AC10E9410
:100FA00045012091C1023091C2024091C30250918B
:100FB000C402621773078407950709F454C110929D
:100FC000C0021092C5021092C6021092C70210927F
:100FD000C80288E0E9ECF2E0DF011D928A95E9F7AA
:100FE0001092D1028091AF029091B002019663E01D
:100FF00070E00E94FA099093B0028093AF028230B1
:10100000910528F41093AE020093AD0222C102971D
:1010100009F01FC1E4E0F0E0F093AE02E093AD020E
:1010200018C18091AF029091B002892B11F0CFE0EE
:1010300001C0CEE0C093C0021092D1028C2F0E945A
:101040005101882E60E08091B2020E948800C601A2
:101050000197F1F761E08091B2020E948800C5011A
:101060000197F1F70E94110185E50E94CA028C2FB9
:1010700088290E94CA020E94C502809101028093C1
:1010800002020E9445016093C5027093C6028093DC
:10109000C7029093C8020E9445016093C5027093F5
:1010A000C6028093C7029093C8027092AE0260920B
:1010B000AD02CFC084EB92E00E948D02892B61F1DA
:1010C00084EB92E00E94AF02E091D10291E09E0F8A
:1010D0009093D102F0E0EB55FD4F84A3983058F087
:1010E000983029F4F092AE02E092AD0204C0109262
:1010F000AE021092AD020E9445016093C50270934A
:10110000C6028093C7029093C802A3C084EB92E00A
:101110000E948D02892BB1F40E9445012091C502E5
:101120003091C6024091C7025091C802DC01CB0148
:10113000821B930BA40BB50B0B97A105B10508F40B
:1011400088C083C084EB92E00E94AF02982E409149
:10115000D10269EC72E08091C0020E941F038911E4
:1011600074C08091AF029091B002009751F48091C9
:10117000CA028093A5028091CF028F708093A6024D
:1011800064C0019709F061C09091CA028091CB02BE
:1011900080FD10C083FD10C094FD10C082FD10C002
:1011A00081FD10C097FD10C0892F807295FF0DC082
:1011B00085E00BC081E009C082E007C083E005C084
:1011C00086E003C087E001C084E090E09093A8022D
:1011D0008093A7023AC08091AF029091B00202972B
:1011E000A1F544E069EA72E08DE00E941F03482EF9
:1011F00060E08091B2020E948800C6010197F1F779
:1012000061E08091B2020E948800C5010197F1F768
:101210000E94110185E50E94CA028DE00E94CA0267
:1012200039EA832E32E0932ED4018D914D010E9434
:10123000CA02BDEA8B16B2E09B06B1F7842D0E946C
:10124000CA020E94C5020E9401031092AE021092CF
:10125000AD020E9445016093C1027093C202809367
:10126000C3029093C4028091D4029091D502A091C0
:10127000D602B091D7028093A9029093AA02A093BC
:10128000AB02B093AC022091A5022093D2028091D0
:10129000A6028093D302E9E0F1E080E090E03181A2
:1012A000231309C0880F991FFC01E75FFE4F80815F
:1012B0008093D20205C0019632968E30910579F75F
:1012C000C091A7028091E501811104C00E944501EF
:1012D000D093E5010E94450160910801C33051F4AB
:1012E0008091E401811113C0D093E4016D276093D4
:1012F000080109C01092E401CC2349F0611155C0E6
:10130000D093080161E080E090E00E94EC098090B9
:101310000801682D44244394C23009F0412C8820F0
:1013200031F088248394C53011F4812C04C0C73077
:1013300021F0C63059F0212C02C0222423943324FA
:101340003394C13009F0312CC0E003C0C1E0212C3E
:10135000312C809100010E948800642D809103014E
:101360000E948800682D809104010E948800622DEF
:10137000809101010E9488006C2F809102010E94DF
:10138000880060E0809105010E94880060E0809103
:1013900006010E948800632D809107010E94880049
:1013A0000E9445010E947402F5CC44244394C2304B
:1013B00009F4B7CF412CB5CF8BE391E09093B50200
:1013C0008093B4020C940103F999FECF92BD81BDC4
:1013D000F89A992780B50895262FF999FECF1FBA5C
:1013E00092BD81BD20BD0FB6F894FA9AF99A0FBE4E
:1013F0000196089597FB072E16F4009407D077FD09
:1014000009D00E940E0A07FC05D03EF49095819504
:101410009F4F0895709561957F4F0895AA1BBB1B40
:1014200051E107C0AA1FBB1FA617B70710F0A61BE4
:10143000B70B881F991F5A95A9F780959095BC0105
:10144000CD010895EE0FFF1F0590F491E02D099452
:1014500081E090E0F8940C942D0A10E0CDE5D0E006
:1014600004C0FE010E94220A2196CE35D107C9F799
:04147000F894FFCF1E
:101474000A0B0C0E0D0F1011000000031602152BA1
:10148400191A1C1A232204230509030A0228070631
:10149400100711000C00000000050272019C0152AB
:1014A40002CD01AB01BF0100000000190372017EEF
:0A14B4000217038D02AF029C020034
:00000001FF
