:100000000C945E000C9486000C9486000C94860080
:100010000C9486000C9486000C9486000C94860048
:100020000C9486000C9486000C9430040C94DA0432
:100030000C94E9030C9486000C9486000C948600C2
:100040000C9447030C9486000C94B7030C94910312
:100050000C9486000C9486000C9486000C94860008
:100060000C9486000C9486000000000024002700F9
:100070002A0000000000250028002B0004040404CE
:100080000404040402020202020203030303030342
:10009000010204081020408001020408102001021F
:1000A00004081020000000080002010000030407FB
:1000B00000000000000000007305240A11241FBE88
:1000C000CFEFD8E0DEBFCDBF11E0A0E0B1E0E4E0CB
:1000D000F5E102C005900D92A034B107D9F722E0F6
:1000E000A0E4B1E001C01D92A33FB207E1F710E028
:1000F000CDE5D0E004C02197FE010E946A0ACC350C
:10010000D107C9F70E940A060C94750A0C940000E6
:1001100090E0FC01EC55FF4F2491FC01E057FF4FAC
:100120003491FC01E458FF4FE491EE2309F43CC004
:10013000222339F1233091F038F42130A9F0223014
:1001400001F584B58F7D12C0273091F02830A1F0E1
:100150002430B9F4809180008F7D03C080918000AD
:100160008F77809380000DC084B58F7784BD09C0E0
:100170008091B0008F7703C08091B0008F7D809315
:10018000B000F0E0EE0FFF1FEE58FF4FA591B491C5
:100190009FB7F894611104C08C913095382302C048
:1001A000EC913E2B3C939FBF0895CF93DF9390E05B
:1001B000FC01E057FF4F2491FC01E458FF4F84916C
:1001C000882361F190E0880F991FFC01E859FF4FE7
:1001D000C591D491FC01EE58FF4FA591B4916111E6
:1001E00009C09FB7F8948881209582238883EC9179
:1001F0002E230BC0623061F49FB7F8948881322FB0
:10020000309583238883EC912E2B2C939FBF06C0BF
:100210008FB7F894E8812E2B28838FBFDF91CF9181
:100220000895CF93DF93CFE6D0E01882109280003C
:1002300081E88093810081E493E0909301028093B0
:10024000000289E19EE19093FF018093FE0162E04C
:1002500088E00E94D50061E089E00E94880061E0AA
:1002600089E00E94D5001092FD011092FC011092CD
:10027000FB011092FA011092F9011092F80180E24C
:1002800086BB8883DF91CF9108952FB7F894609152
:10029000F4017091F5018091F6019091F7012FBF63
:1002A000089581FB442740F984FB332730F983FB11
:1002B000992790F9232F2427292785FB992790F93F
:1002C00029272095220F82FB992790F94927982FFB
:1002D0009170842F89278327822B8295880F880F1E
:1002E000807C0895CF92DF92EF92FF920F931F933D
:1002F000CF93DF936C017A018B01C0E0D0E0CE1583
:10030000DF0581F0D8016D918D01D601ED91FC9151
:100310000190F081E02DC6010995892B11F02196FD
:10032000EECF7E01C701DF91CF911F910F91FF901A
:10033000EF90DF90CF900895FC01538D448D252FD1
:1003400030E0842F90E0821B930B541710F0CF966F
:10035000089501970895FC01918D828D981761F0A1
:10036000828DDF01A80FB11D5D968C91928D9F5FEC
:100370009F73928F90E008958FEF9FEF0895FC0197
:10038000918D828D981731F0828DE80FF11D858D4A
:1003900090E008958FEF9FEF0895FC01918D228DDD
:1003A000892F90E0805C9F4F821B91098F73992762
:1003B000089582E092E00E94CD0121E0892B09F4AA
:1003C00020E0822F0895FC01848DDF01A80FB11D6C
:1003D000A35ABF4F2C91848D90E001968F7399277B
:1003E000848FA689B7892C93A089B1898C91837059
:1003F00080648C93938D848D981306C00288F38952
:10040000E02D80818F7D80830895EF92FF920F937E
:100410001F93CF93DF93EC0181E0888F9B8D8C8DB0
:10042000981305C0E889F989808185FD26C0F62EDC
:100430000B8D10E00F5F1F4F0F731127E02E8C8D77
:10044000E8120CC00FB607FCFACFE889F989808161
:1004500085FFF5CFCE010E94E301F1CF8B8DFE0128
:10046000E80FF11DE35AFF4FF0829FB7F8940B8F0E
:10047000EA89FB89808180620AC09FB7F894EE897F
:10048000FF896083E889F989808183708064808333
:100490009FBF81E090E0DF91CF911F910F91FF907E
:1004A000EF900895CF93DF93EC01888D8823C9F0F6
:1004B000EA89FB89808185FD05C0A889B9898C916D
:1004C00086FD0FC00FB607FCF5CF808185FFF2CF08
:1004D000A889B9898C9185FFEDCFCE010E94E301F7
:1004E000E7CFDF91CF91089580E090E0892B29F04C
:1004F0000E94D90181110C94000008955091F901D6
:100500004091F801842F90E0252F30E0541710F02F
:100510008C5B9F4F821B930B08955091FC0140917F
:10052000FB01852F90E0242F30E0541710F4805BFE
:100530009F4F821B930B08958091FC01E091FB017A
:100540008E1751F0EF5FE03508F0E0E0F0E0E6579D
:10055000FE4F808190E008958FEF9FEF0895809186
:10056000FC019091FB01891769F09F5F903508F0BD
:1005700090E0E92FF0E0E657FE4F80819093FB0179
:1005800090E008958FEF9FEF08958091FA01811117
:10059000FCCF08959091F9019F5F943408F090E0AA
:1005A0002091F8012917E1F32FB7F8943091FA015F
:1005B000332341F0E92FF0E0E05CFE4F808390931D
:1005C000F9011DC091E09093FA018093850110928A
:1005D000840182E086BB80916F00826080936F000F
:1005E000809180008F7B8068809380008091840060
:1005F00090918500409690938900809388002FBF4A
:100600000895CF93DF93CFE6D0E088818B7F8883F6
:1006100088818F7D88838091FB018093FC010E94FB
:10062000C50288818D7F8883DF91CF9108950C94D6
:10063000C502862F0E94CA0281E090E008950F93C0
:100640001F93CF93DF93C82F8B01D42F0E945101AA
:100650008C2B90E0F801D15020F02191820F911D58
:10066000FACF292F33272115310529F0A901480F89
:10067000511DCA01F6CF8095DF91CF911F910F9147
:100680000895089580E090E008950E94700A1F92F6
:100690000F920FB60F9211242F933F938F939F9336
:1006A000AF93BF938091F4019091F501A091F60171
:1006B000B091F7013091F30123E0230F2D3720F49F
:1006C0000196A11DB11D05C026E8230F0296A11DAC
:1006D000B11D2093F3018093F4019093F501A09351
:1006E000F601B093F7018091EF019091F001A09194
:1006F000F101B091F2010196A11DB11D8093EF01AE
:100700009093F001A093F101B093F201BF91AF91EA
:100710009F918F913F912F910F900FBE0F901F903F
:1007200018951F920F920FB60F9211242F933F939B
:100730004F935F936F937F938F939F93AF93BF93E9
:10074000EF93FF9382E092E00E94E301FF91EF912B
:10075000BF91AF919F918F917F916F915F914F91D9
:100760003F912F910F900FBE0F901F9018951F92E1
:100770000F920FB60F9211242F938F939F93EF93A5
:10078000FF93E0911202F09113028081E091180230
:10079000F091190282FD12C0908180911B028F5F3F
:1007A0008F7320911C02821751F0E0911B02F0E040
:1007B000EE5FFD4F958F80931B0201C08081FF91FA
:1007C000EF919F918F912F910F900FBE0F901F90DF
:1007D00018951F920F920FB60F9211242F938F939B
:1007E0009F93EF93FF9380916F008B7F80936F00B7
:1007F000809181008F7B809381008091FD01209109
:100800008901205890918801893020F49695922B87
:100810008F5FFACF909388018091FC018F5F8035C4
:1008200008F080E02091FB01821739F0E82FF0E01A
:10083000E657FE4F90838093FC011092FD0180915A
:1008400081008F7B8093810010928901FF91EF914D
:100850009F918F912F910F900FBE0F901F90189521
:100860001F920F920FB60F9211242F933F934F9325
:100870005F936F937F938F939F93AF93BF93EF9308
:10088000FF9380918600909187004091890120918B
:100890008100442331F02F7B209381001092890145
:1008A00006C020642093810020E8209389013091C4
:1008B000FD01311125C041116CC02091FE01309124
:1008C000FF01280F391F30938B0020938A0024E00A
:1008D00026BB20916F00246020936F0020910002BE
:1008E00030910102820F931F36952795820F931F37
:1008F000909387018093860181E08093FD0149C038
:10090000409186015091870160910002709101022F
:10091000DB01A095B09520918801E0918901841BAD
:10092000950BA817B90768F126952E2B460F571F70
:100930003F5F861B970B3930A0F32093880180918D
:100940006F008B7F80936F008091FC018F5F8035FB
:1009500008F080E09091FB01891749F0E82FF0E062
:1009600090918801E657FE4F90838093FC0180911F
:1009700081008F7B80938100109289011092FD018C
:1009800008C02093880150938701409386013093DB
:10099000FD01FF91EF91BF91AF919F918F917F9159
:1009A0006F915F914F913F912F910F900FBE0F90DC
:1009B0001F9018951F920F920FB60F9211242F932C
:1009C0003F934F935F936F937F938F939F93EF9397
:1009D000FF938091FA016091850120918800309108
:1009E00089004091000250910102909184018A3067
:1009F000F8F4240F351F893019F0762F717001C07B
:100A000071E066958F5F791791F39091800077235D
:100A100011F0906C02C09F7B90689093800030939F
:100A200089002093880070938401609385014AC0F7
:100A30009091F901E091F8019E1319C08A3051F4A8
:100A40008BE08093FA01240F351F309389002093A7
:100A500088003AC01092FA01809180008F738093D1
:100A6000800080916F008D7F80936F002DC0EF5FBD
:100A7000E43408F0E0E0E093F801F0E0E05CFE4FE1
:100A800090819093850110928401909180009F7BCA
:100A90009068909380008A3059F480910002909180
:100AA0000102280F391F309389002093880009C064
:100AB0008091840090918500409690938900809366
:100AC000880081E08093FA01FF91EF919F918F91CF
:100AD0007F916F915F914F913F912F910F900FBE3A
:100AE0000F901F901895CF92DF92EF92FF920F9385
:100AF0001F93CF93DF93E2E0F2E01382128288EE3D
:100B0000C82E83E0D82EE12CF12CC482D582E68257
:100B1000F78280E291E09183808385EC90E0958775
:100B2000848784EC90E09787868780EC90E0918BB7
:100B3000808B81EC90E0938B828B82EC90E0958BA4
:100B4000848B86EC90E0978B868B118E128E138EA1
:100B5000148EC9EDD2E01882198218861D861E8A6D
:100B60001F8A188E198E1FEF1E871F86188B80EF25
:100B7000898B80E68A8B1B8A80E38C8B1D8A1A8284
:100B800009EF0B831C831D830E9445016E8B7F8BB5
:100B9000888F998FECEAF2E0108211821382128220
:100BA00088E0848789E0858787E08687128A118AB2
:100BB000C38AD48AE58AF68A82E391E0908B87879C
:100BC000138E148E158E168E178E10A211A212A2DD
:100BD00013A214A61482058316831783EFE9F2E0AB
:100BE0008AE080838BE081838CE082838EE0838344
:100BF0008DE084838FE0858380E1868381E1878334
:100C00001086DF91CF911F910F91FF90EF90DF90B1
:100C1000CF900895789484B5826084BD84B5816056
:100C200084BD85B5826085BD85B5816085BD8091B7
:100C30006E00816080936E0010928100809181002F
:100C40008260809381008091810081608093810027
:100C5000809180008160809380008091B1008460E9
:100C60008093B1008091B00081608093B00080914A
:100C70007A00846080937A0080917A008260809309
:100C80007A0080917A00816080937A0080917A0066
:100C9000806880937A001092C10061E080919F0289
:100CA0000E94D50061E08091A2020E94D50061E01F
:100CB0008091A3020E94D50061E08091A0020E9471
:100CC000D50061E08091A1020E94D50061E0809191
:100CD000A4020E94D50061E08091A5020E94D50087
:100CE00061E08091A6020E94D50080E090E00E9421
:100CF0002C0A91E0811101C090E09093A70210921C
:100D0000A8021092A9021092AA021092AB02E091DE
:100D10001202F091130282E08083E0910E02F091C2
:100D20000F021082E0911002F091110287E6808399
:100D300010921A02E0911602F091170286E0808369
:100D4000E0911402F0911502808180618083E0912E
:100D50001402F0911502808188608083E091140272
:100D6000F0911502808180688083E0911402F091F7
:100D7000150280818F7D808361E08091BA020E949C
:100D8000D50061E08091BA020E9488008091FB0149
:100D90008093FC011092B5021092B40282E090E0C0
:100DA0009093B7028093B6027724739404E010E026
:100DB000EE24E394F12C43E0C42ED12C53EBA52E6A
:100DC0005BE0B52E6BE8862E992493948091E70121
:100DD000811104C00E9445017092E7010E94450103
:100DE0002091EF023091F0024091F1025091F20215
:100DF000DC01CB01821B930BA40BB50B853691054F
:100E0000A105B10550F00E9445016093EF02709377
:100E1000F0028093F1029093F20282E092E00E944D
:100E2000CD01892B09F4B2C00E9445016093EF0205
:100E30007093F0028093F1029093F20282E092E0CC
:100E40000E94AB01C82F8091DF029091E0028130B7
:100E50009105A1F040F08230910509F462C003973A
:100E600009F476C0DACFC535C1F6C093E20210921C
:100E7000E602F092E002E092DF02CFCFCF73C093A0
:100E8000E102CE30D1F582E092E00E94CD01892BC3
:100E900079F51093E0020093DF028091E70290E081
:100EA00001966FE070E00E94420A806F8093E70233
:100EB0008091D9028093E8028091DA028063809366
:100EC000ED0248E067EE72E08EE00E941F03682E9C
:100ED000C7EED2E0699182E092E00E94050282E0D2
:100EE000CF3ED807B9F7662D82E092E00E94050256
:100EF0001092E0021092DF0290CFCD3039F4A2E0E0
:100F0000B0E0B093E002A093DF0287CF82E092E0EE
:100F10000E94CD01892B61F382E092E00E94AB0137
:100F2000F5CFE091E60281E08E0F8093E602F0E0DB
:100F3000E752FD4FC1879091E1029D3009F06DCFDE
:100F4000843009F06ACFD092E002C092DF0265CF10
:100F5000D091E1024091E60262EE72E08D2F0E9494
:100F60001F03C813C5CFDD3019F68091E2029091BE
:100F7000E302A091E402B091E5028093DB0290933A
:100F8000DC02A093DD02B093DE02B2CF8091DB02DF
:100F900081118AE18093B0028091B4029091B502F0
:100FA0008230910509F49AC030F4009761F00197FE
:100FB00009F449C064C18330910509F4BBC00497AA
:100FC00009F424C15CC10E9445012091C8023091FE
:100FD000C9024091CA025091CB026217730784077D
:100FE000950709F456C11092C7021092CC021092D4
:100FF000CD021092CE021092CF0288E0E0EDF2E036
:10100000DF011D928A95E9F71092D8028091B6020D
:101010009091B702019663E070E00E94420A9093BB
:10102000B7028093B6028230910528F4F092B5029F
:10103000E092B40224C1029709F021C11093B502D5
:101040000093B4021CC18091B6029091B702892B23
:1010500011F0CFE001C0CEE0C093C7021092D802D9
:101060008C2F0E945101D82F60E08091B9020E941C
:101070008800C5010197F1F761E08091B9020E94F3
:101080008800C4010197F1F70E94110185E50E94D3
:10109000CA028C2F8D2B0E94CA020E94C502809129
:1010A000FB018093FC010E9445016093CC02709388
:1010B000CD028093CE029093CF020E9445016093AF
:1010C000CC027093CD028093CE029093CF0282E047
:1010D00090E09093B5028093B402D1C08BEB92E084
:1010E0000E948D02892B61F18BEB92E00E94AF028E
:1010F000E091D80291E09E0F9093D802F0E0E45581
:10110000FD4F84A3983058F0983029F4D092B5025E
:10111000C092B40204C01092B5021092B4020E94B0
:1011200045016093CC027093CD028093CE029093E0
:10113000CF02A5C08BEB92E00E948D02892BB1F407
:101140000E9445012091CC023091CD024091CE0207
:101150005091CF02DC01CB01821B930BA40BB50B8A
:101160000B97A105B10508F48AC085C08BEB92E00E
:101170000E94AF02C82F4091D80260ED72E08091CA
:10118000C7020E941F038C1376C08091B602909113
:10119000B702009751F48091D1028093AC02809104
:1011A000D6028F708093AD0266C0019709F063C0CC
:1011B0008091D1029091D20290FD13C096FD1FC084
:1011C00093FD11C084FD11C092FD11C091FD11C0AD
:1011D00087FD11C085FD11C0892F807295FD0FC05C
:1011E0000FC081E00DC082E00BC083E009C086E043
:1011F00007C087E005C084E003C085E001C088E047
:1012000090E09093AF028093AE0235C08091B60219
:101210009091B702029779F544E060EB72E08DE0BF
:101220000E941F03682E60E08091B9020E9488002E
:10123000C5010197F1F761E08091B9020E94880031
:10124000C4010197F1F70E94110185E50E94CA02CD
:101250008DE00E94CA02C0EBD2E089910E94CA02CE
:1012600092E0C43BD907C9F7862D0E94CA020E94AA
:10127000C5020E9401031092B5021092B4020E94AE
:1012800045016093C8027093C9028093CA0290938B
:10129000CB028091DB029091DC02A091DD02B09143
:1012A000DE028093B0029093B102A093B202B09399
:1012B000B3022091AC022093D9028091AD028093B9
:1012C000DA02E0E0F1E080E090E03181231309C030
:1012D000880F991FFC01E050FF4F80818093D90255
:1012E00005C0019632968E30910579F7C091AE0215
:1012F0008091DF01811104C00E9445017092DF01DD
:101300000E9445016093DB017093DC018093DD0155
:101310009093DE012091A702C33059F48091DA0145
:10132000811116C07092DA01622F67256093A702BF
:101330000BC01092DA01CC2359F0C53049F02111CD
:101340007CC07092A70261E080E090E00E94340AC5
:10135000D091A7022D2F66246394C23009F0612C2E
:10136000DD2331F0C53019F0D1E0C43009F4D0E00C
:101370004091A8025091A9026091AA027091AB021B
:101380008091DB019091DC01A091DD01B091DE0143
:10139000481759076A077B0750F422242394C73063
:1013A00009F0212C33243394C63011F402C0212CCF
:1013B000312C84179507A607B70740F444244394BB
:1013C000C73029F0412CC63011F408C0412C5524F7
:1013D0005394C13009F0512CC0E002C0C1E0512C3F
:1013E000622F80919F020E948800662D8091A20248
:1013F0000E9488006D2F8091A3020E948800622DB8
:101400008091A0020E948800632D8091A1020E9419
:101410008800642D8091A4020E9488006C2F809126
:10142000A5020E948800652D8091A6020E94880076
:101430000E9445010E947402C9CC66246394C230A4
:1014400009F492CF612C90CF82E391E09093BC029B
:101450008093BB020C940103F999FECF92BD81BD2C
:10146000F89A992780B50895262FF999FECF1FBACB
:1014700092BD81BD20BD0FB6F894FA9AF99A0FBEBD
:101480000196089597FB072E16F4009407D077FD78
:1014900009D00E94560A07FC05D03EF4909581952C
:1014A0009F4F0895709561957F4F0895AA1BBB1BB0
:1014B00051E107C0AA1FBB1FA617B70710F0A61B54
:1014C000B70B881F991F5A95A9F780959095BC0175
:1014D000CD010895EE0FFF1F0590F491E02D0994C2
:1014E00081E090E0F8940C94750A10E0CDE5D0E02E
:1014F00004C0FE010E946A0A2196CE35D107C9F7C1
:04150000F894FFCF8D
:101504000000031602152B191A1C1A2322042305A2
:1015140009030A02280706100711000C0000000046
:10152400050272019C015202CD01AB01BF01000012
:101534000000190372017E0217038D02AF029C02A0
:00000001FF
