:100000000C945E000C9486000C9486000C94860080
:100010000C9486000C9486000C9486000C94860048
:100020000C9486000C9486000C9430040C94DA0432
:100030000C94E9030C9486000C9486000C948600C2
:100040000C9447030C9486000C94B7030C94910312
:100050000C9486000C9486000C9486000C94860008
:100060000C9486000C9486000000000024002700F9
:100070002A0000000000250028002B0004040404CE
:100080000404040402020202020203030303030342
:10009000010204081020408001020408102001021F
:1000A00004081020000000080002010000030407FB
:1000B00000000000000000007305DE0A11241FBECE
:1000C000CFEFD8E0DEBFCDBF11E0A0E0B1E0ECEBB8
:1000D000F6E102C005900D92AA34B107D9F722E0EB
:1000E000AAE4B1E001C01D92A83FB207E1F710E019
:1000F000CDE5D0E004C02197FE010E94460BCC352F
:10010000D107C9F70E94F7050C94510B0C9400001D
:1001100090E0FC01EC55FF4F2491FC01E057FF4FAC
:100120003491FC01E458FF4FE491EE2309F43CC004
:10013000222339F1233091F038F42130A9F0223014
:1001400001F584B58F7D12C0273091F02830A1F0E1
:100150002430B9F4809180008F7D03C080918000AD
:100160008F77809380000DC084B58F7784BD09C0E0
:100170008091B0008F7703C08091B0008F7D809315
:10018000B000F0E0EE0FFF1FEE58FF4FA591B491C5
:100190009FB7F894611104C08C913095382302C048
:1001A000EC913E2B3C939FBF0895CF93DF9390E05B
:1001B000FC01E057FF4F2491FC01E458FF4F84916C
:1001C000882361F190E0880F991FFC01E859FF4FE7
:1001D000C591D491FC01EE58FF4FA591B4916111E6
:1001E00009C09FB7F8948881209582238883EC9179
:1001F0002E230BC0623061F49FB7F8948881322FB0
:10020000309583238883EC912E2B2C939FBF06C0BF
:100210008FB7F894E8812E2B28838FBFDF91CF9181
:100220000895CF93DF93CFE6D0E01882109280003C
:1002300081E88093810081E493E09093130280939E
:10024000120289E19EE1909311028093100262E014
:1002500088E00E94D50061E089E00E94880061E0AA
:1002600089E00E94D50010920F0210920E021092A7
:100270000D0210920C0210920B0210920A0280E200
:1002800086BB8883DF91CF9108952FB7F894609152
:1002900006027091070280910802909109022FBF17
:1002A000089581FB442740F984FB332730F983FB11
:1002B000992790F9232F2427292785FB992790F93F
:1002C00029272095220F82FB992790F94927982FFB
:1002D0009170842F89278327822B8295880F880F1E
:1002E000807C0895CF92DF92EF92FF920F931F933D
:1002F000CF93DF936C017A018B01C0E0D0E0CE1583
:10030000DF0581F0D8016D918D01D601ED91FC9151
:100310000190F081E02DC6010995892B11F02196FD
:10032000EECF7E01C701DF91CF911F910F91FF901A
:10033000EF90DF90CF900895FC01538D448D252FD1
:1003400030E0842F90E0821B930B541710F0CF966F
:10035000089501970895FC01918D828D981761F0A1
:10036000828DDF01A80FB11D5D968C91928D9F5FEC
:100370009F73928F90E008958FEF9FEF0895FC0197
:10038000918D828D981731F0828DE80FF11D858D4A
:1003900090E008958FEF9FEF0895FC01918D228DDD
:1003A000892F90E0805C9F4F821B91098F73992762
:1003B000089584E192E00E94CD0121E0892B09F4A7
:1003C00020E0822F0895FC01848DDF01A80FB11D6C
:1003D000A35ABF4F2C91848D90E001968F7399277B
:1003E000848FA689B7892C93A089B1898C91837059
:1003F00080648C93938D848D981306C00288F38952
:10040000E02D80818F7D80830895EF92FF920F937E
:100410001F93CF93DF93EC0181E0888F9B8D8C8DB0
:10042000981305C0E889F989808185FD26C0F62EDC
:100430000B8D10E00F5F1F4F0F731127E02E8C8D77
:10044000E8120CC00FB607FCFACFE889F989808161
:1004500085FFF5CFCE010E94E301F1CF8B8DFE0128
:10046000E80FF11DE35AFF4FF0829FB7F8940B8F0E
:10047000EA89FB89808180620AC09FB7F894EE897F
:10048000FF896083E889F989808183708064808333
:100490009FBF81E090E0DF91CF911F910F91FF907E
:1004A000EF900895CF93DF93EC01888D8823C9F0F6
:1004B000EA89FB89808185FD05C0A889B9898C916D
:1004C00086FD0FC00FB607FCF5CF808185FFF2CF08
:1004D000A889B9898C9185FFEDCFCE010E94E301F7
:1004E000E7CFDF91CF91089580E090E0892B29F04C
:1004F0000E94D90181110C940000089550910B02C3
:1005000040910A02842F90E0252F30E0541710F01C
:100510008C5B9F4F821B930B089550910E0240916C
:100520000D02852F90E0242F30E0541710F4805BEB
:100530009F4F821B930B089580910E02E0910D0254
:100540008E1751F0EF5FE03508F0E0E0F0E0EC5698
:10055000FE4F808190E008958FEF9FEF0895809186
:100560000E0290910D02891769F09F5F903508F097
:1005700090E0E92FF0E0EC56FE4F808190930D0261
:1005800090E008958FEF9FEF089580910C02811104
:10059000FCCF089590910B029F5F943408F090E097
:1005A00020910A022917E1F32FB7F89430910C0239
:1005B000332341F0E92FF0E0E65BFE4F8083909318
:1005C0000B021DC091E090930C0280938F0110925A
:1005D0008E0182E086BB80916F00826080936F0005
:1005E000809180008F7B8068809380008091840060
:1005F00090918500409690938900809388002FBF4A
:100600000895CF93DF93CFE6D0E088818B7F8883F6
:1006100088818F7D888380910D0280930E020E94D5
:10062000C50288818D7F8883DF91CF9108950C94D6
:10063000C502862F0E94CA0281E090E008950F93C0
:100640001F93CF93DF93C82F8B01D42F0E945101AA
:100650008C2B90E0F801D15020F02191820F911D58
:10066000FACF292F33272115310529F0A901480F89
:10067000511DCA01F6CF8095DF91CF911F910F9147
:100680000895089580E090E008950E944C0B1F9219
:100690000F920FB60F9211242F933F938F939F9336
:1006A000AF93BF938091060290910702A091080238
:1006B000B09109023091050223E0230F2D3720F479
:1006C0000196A11DB11D05C026E8230F0296A11DAC
:1006D000B11D209305028093060290930702A09318
:1006E0000802B09309028091010290910202A09148
:1006F0000302B09104020196A11DB11D8093010275
:1007000090930202A0930302B0930402BF91AF91B1
:100710009F918F913F912F910F900FBE0F901F903F
:1007200018951F920F920FB60F9211242F933F939B
:100730004F935F936F937F938F939F93AF93BF93E9
:10074000EF93FF9384E192E00E94E301FF91EF9128
:10075000BF91AF919F918F917F916F915F914F91D9
:100760003F912F910F900FBE0F901F9018951F92E1
:100770000F920FB60F9211242F938F939F93EF93A5
:10078000FF93E0912402F09125028081E0912A02FA
:10079000F0912B0282FD12C0908180912D028F5F1B
:1007A0008F7320912E02821751F0E0912D02F0E01C
:1007B000EC5EFD4F958F80932D0201C08081FF91EB
:1007C000EF919F918F912F910F900FBE0F901F90DF
:1007D00018951F920F920FB60F9211242F938F939B
:1007E0009F93EF93FF9380916F008B7F80936F00B7
:1007F000809181008F7B8093810080910F022091F6
:100800009301205890919201893020F49695922B73
:100810008F5FFACF9093920180910E028F5F8035A7
:1008200008F080E020910D02821739F0E82FF0E007
:10083000EC56FE4F908380930E0210920F0280912F
:1008400081008F7B8093810010929301FF91EF9143
:100850009F918F912F910F900FBE0F901F90189521
:100860001F920F920FB60F9211242F933F934F9325
:100870005F936F937F938F939F93AF93BF93EF9308
:10088000FF93809186009091870040919301209181
:100890008100442331F02F7B20938100109293013B
:1008A00006C020642093810020E8209393013091BA
:1008B0000F02311125C041116CC0209110023091FE
:1008C0001102280F391F30938B0020938A0024E0F7
:1008D00026BB20916F00246020936F0020911202AC
:1008E00030911302820F931F36952795820F931F25
:1008F000909391018093900181E080930F0249C011
:1009000040919001509191016091120270911302F7
:10091000DB01A095B09520919201E0919301841B99
:10092000950BA817B90768F126952E2B460F571F70
:100930003F5F861B970B3930A0F320939201809183
:100940006F008B7F80936F0080910E028F5F8035E8
:1009500008F080E090910D02891749F0E82FF0E04F
:1009600090919201EC56FE4F908380930E028091FD
:1009700081008F7B809381001092930110920F026F
:1009800008C02093920150939101409390013093BD
:100990000F02FF91EF91BF91AF919F918F917F9146
:1009A0006F915F914F913F912F910F900FBE0F90DC
:1009B0001F9018951F920F920FB60F9211242F932C
:1009C0003F934F935F936F937F938F939F93EF9397
:1009D000FF9380910C0260918F01209188003091EB
:1009E0008900409112025091130290918E018A3039
:1009F000F8F4240F351F893019F0762F717001C07B
:100A000071E066958F5F791791F39091800077235D
:100A100011F0906C02C09F7B90689093800030939F
:100A200089002093880070938E0160938F014AC0E3
:100A300090910B02E0910A029E1319C08A3051F482
:100A40008BE080930C02240F351F30938900209394
:100A500088003AC010920C02809180008F738093BE
:100A6000800080916F008D7F80936F002DC0EF5FBD
:100A7000E43408F0E0E0E0930A02F0E0E65BFE4FC9
:100A8000908190938F0110928E01909180009F7BB6
:100A90009068909380008A3059F48091120290916E
:100AA0001302280F391F309389002093880009C052
:100AB0008091840090918500409690938900809366
:100AC000880081E080930C02FF91EF919F918F91BC
:100AD0007F916F915F914F913F912F910F900FBE3A
:100AE0000F901F901895CF92DF92EF92FF920F9385
:100AF0001F93CF93DF93E4E1F2E01382128288EE3A
:100B0000C82E83E0D82EE12CF12CC482D582E68257
:100B1000F78289E291E09183808385EC90E095876C
:100B2000848784EC90E09787868780EC90E0918BB7
:100B3000808B81EC90E0938B828B82EC90E0958BA4
:100B4000848B86EC90E0978B868B118E128E138EA1
:100B5000148ECEEDD2E01882198218861D861E8A68
:100B60001F8A188E198E1FEF1E871F86188B80EF25
:100B7000898B80E68A8B1B8A80E38C8B1D8A1A8284
:100B800009EF0B831C831D830E9445016E8B7F8BB5
:100B9000888F998FE1EBF2E010821182138212822A
:100BA00088E0848789E0858787E08687128A118AB2
:100BB000C38AD48AE58AF68A8BE391E0908B878793
:100BC000138E148E158E168E178E10A211A212A2DD
:100BD00013A214A61482058316831783DF91CF9185
:100BE0001F910F91FF90EF90DF90CF900895CF93DA
:100BF000DF9300D000D01F92CDB7DEB7789484B5D4
:100C0000826084BD84B5816084BD85B5826085BD08
:100C100085B5816085BD80916E00816080936E0096
:100C20001092810080918100826080938100809188
:100C30008100816080938100809180008160809339
:100C400080008091B10084608093B1008091B000F9
:100C500081608093B00080917A00846080937A00F4
:100C600080917A00826080937A0080917A0081601E
:100C700080937A0080917A00806880937A00109245
:100C8000C10061E0809100010E94D50061E0809187
:100C900003010E94D50061E0809104010E94D5000B
:100CA00061E0809101010E94D50061E08091020124
:100CB0000E94D50061E0809105010E94D50061E0AD
:100CC000809106010E94D50061E0809107010E9499
:100CD000D50080E090E00E94E60A91E0811101C019
:100CE00090E090930801E0912402F091250282E0C7
:100CF0008083E0912002F09121021082E091220293
:100D0000F091230287E6808310922C02E091280262
:100D1000F091290286E08083E0912602F09127027B
:100D2000808180618083E0912602F091270280819A
:100D300088608083E0912602F0912702808180689C
:100D40008083E0912602F091270280818F7D80834D
:100D500061E08091BF020E94D50061E08091BF02F6
:100D60000E94880080910D0280930E021092BA02B8
:100D70001092B90282E090E09093BC028093BB0293
:100D800033EBE32E3BE0F32E4BE8C42EDD24D3946B
:100D90005AEF852E912CA12CB12C8091F901811153
:100DA00005C00E94450181E08093F9010E94450140
:100DB0000091F4021091F5022091F6023091F702B1
:100DC000DC01CB01801B910BA20BB30B8536910587
:100DD000A105B10550F00E9445016093F4027093A3
:100DE000F5028093F6029093F70284E192E00E946C
:100DF000CD01892B09F4C9C00E9445016093F4021A
:100E00007093F5028093F6029093F70284E192E0EA
:100E10000E94AB0189838091E4029091E5028130C8
:100E20009105B9F040F08230910509F472C0039742
:100E300009F489C0DACF29812535B9F62093E70274
:100E40001092EB0241E050E05093E5024093E4023F
:100E5000CCCF59815F7359835093E6025E3009F01D
:100E600043C084E192E00E94CD01892BC1F584E06A
:100E700090E09093E5028093E4028091EC0290E090
:100E800001966FE070E00E94FC0A806F8093EC0294
:100E90008091DE028093ED028091DF028063809377
:100EA000F20248E06CEE72E08EE00E941F03182F01
:100EB000ACEEB2E0BA83A983E981FA816191FA8349
:100EC000E98384E192E00E94050229813A81245F4E
:100ED000324091F7612F84E192E00E940502109266
:100EE000E5021092E40281CF59815D3039F482E04D
:100EF00090E09093E5028093E40277CF84E192E062
:100F00000E94CD01892B59F384E192E00E94AB014C
:100F1000F5CFE091EB0281E08E0F8093EB02F0E0E1
:100F2000E252FD4F998191879091E6029D3009F040
:100F30005CCF843009F059CFA3E0B0E0B093E50274
:100F4000A093E40252CFB091E602BD834091EB0240
:100F500067EE72E08B2F0E941F03E981E813BFCF79
:100F6000FD81FD3009F0BBCF8091E7029091E8024E
:100F7000A091E902B091EA028093E0029093E1022D
:100F8000A093E202B093E302AACF8091E002811124
:100F90008AE18093B5028091B9029091BA028230C1
:100FA000910509F4A2C030F4009761F0019709F4AB
:100FB0004DC06FC18330910509F4C5C0049709F491
:100FC00028C167C10E9445010091CD021091CE0257
:100FD0002091CF023091D0026017710782079307EA
:100FE00009F461C11092CC021092D1021092D20287
:100FF0001092D3021092D40288E0E5EDF2E0DF0116
:101000001D928A95E9F71092DD028091BB029091C2
:10101000BC02019663E070E00E94FC0A9093BC025F
:101020008093BB028230910538F4E1E0F0E0F09368
:10103000BA02E093B9022DC1029709F02AC124E057
:1010400030E03093BA022093B90223C18091BB02F1
:101050009091BC02892B19F03FE0398302C04EE029
:10106000498359815093CC021092DD02852F0E9452
:1010700051018D8360E08091BE020E948800C7010B
:101080000197F1F761E08091BE020E948800C601DD
:101090000197F1F70E94110185E50E94CA0289813A
:1010A0009D81892B0E94CA020E94C50280910D0277
:1010B00080930E020E9445016093D1027093D20288
:1010C0008093D3029093D4020E9445016093D10291
:1010D0007093D2028093D3029093D402A2E0B0E046
:1010E000B093BA02A093B902D4C080EC92E00E94FF
:1010F0008D02892B71F180EC92E00E94AF02E091A9
:10110000DD0291E09E0F9093DD02F0E0EF54FD4F81
:1011100084A3983068F0983039F4E3E0F0E0F0937D
:10112000BA02E093B90204C01092BA021092B90256
:101130000E9445016093D1027093D2028093D30242
:101140009093D402A6C080EC92E00E948D02892B7D
:10115000B1F40E9445010091D1021091D202209178
:10116000D3023091D402DC01CB01801B910BA20B86
:10117000B30B0B97A105B10508F48BC086C080ECBA
:1011800092E00E94AF0289834091DD0265ED72E03A
:101190008091CC020E941F03F9818F1376C0809149
:1011A000BB029091BC02009751F48091D6028093CB
:1011B000B1028091DB028F708093B20266C001970A
:1011C00009F063C09091D6028091D70280FD10C0D3
:1011D00083FD10C094FD10C082FD10C081FD10C0C1
:1011E00097FD10C0892F807295FF0DC085E00BC060
:1011F00081E009C082E007C083E005C086E003C04B
:1012000087E001C084E090E09093B4028093B30241
:101210003CC08091BB029091BC020297B1F544E0C2
:1012200065EB72E08DE00E941F03182F60E0809153
:10123000BE020E948800C7010197F1F761E080912A
:10124000BE020E948800C6010197F1F70E941101B9
:1012500085E50E94CA028DE00E94CA0225EB32E0B9
:101260003A832983A981BA818D91BA83A9830E9487
:10127000CA02E981FA81E95BF240A1F7812F0E945D
:10128000CA020E94C5020E9401031092BA02109283
:10129000B9020E9445016093CD027093CE02809303
:1012A000CF029093D0028091E0029091E102A09150
:1012B000E202B091E3028093B5029093B602A0934C
:1012C000B702B093B8022091B1022093DE02809160
:1012D000B2028093DF02E9E0F1E080E090E031814A
:1012E000231309C0880F991FFC01E75FFE4F80811F
:1012F0008093DE0205C0019632968E30910579F713
:101300003091B30239838091F10181110DC00E94A7
:1013100045016093ED017093EE018093EF0190938E
:10132000F00181E08093F1010E9445010091ED01FF
:101330001091EE012091EF013091F001DC01CB0121
:10134000801B910BA20BB30B84369105A105B1054F
:1013500008F423C10E9445016093ED017093EE01F2
:101360008093EF019093F00160910801498143302F
:1013700059F48091EC01811119C081E08093EC0156
:101380006827609308010EC01092EC015981552323
:1013900069F0F981F53051F0611108C181E0809365
:1013A000080161E080E090E00E94EE0A10910801DF
:1013B0001D8301E08981823009F000E0112329F0CA
:1013C00011E09981953009F410E08091E801909145
:1013D000E901A091EA01B091EB014090E401509045
:1013E000E5016090E6017090E701E981E13099F153
:1013F000E730A1F52091ED013091EE014091EF0130
:101400005091F00129833A834B835C830097A105B7
:10141000B10549F42093E8013093E9014093EA01D2
:101420005093EB01BFC029813A814B815C81281B1D
:10143000390B4A0B5B0BCA01B901683E33E07307F5
:101440008105910508F4AEC0A50194010E94100B1E
:1014500021702983A8C02224239401C0212C009745
:10146000A105B105E9F04091ED015091EE016091C7
:10147000EF017091F001481B590B6A0B7B0B332471
:101480003394483E53406105710508F0312C1092A9
:10149000E8011092E9011092EA011092EB0101C0FB
:1014A000312C9981963051F58091ED019091EE01AA
:1014B000A091EF01B091F001411451046104710455
:1014C00049F48093E4019093E501A093E601B09381
:1014D000E70138C0BC01CD01641975098609970977
:1014E000683EA3E07A078105910560F1A5019401AA
:1014F0000E94100B2170722E198226C0198241148D
:10150000510461047104F9F08091ED019091EE01B4
:10151000A091EF01B091F00184199509A609B709CE
:1015200066246394883E9340A105B10508F0612CC0
:101530001092E4011092E5011092E6011092E70189
:10154000712C03C01982712C612C6D818091000176
:101550000E948800602F809103010E948800612F03
:10156000809104010E948800632D809101010E94F6
:101570008800662D809102010E9488006981809117
:1015800005010E948800672D809106010E94880055
:10159000622D809107010E9488000E9445010E94EF
:1015A0007402FBCB1982212C312CA9CF6D8301E071
:1015B0002981223009F404CF00E002CF8BE391E0CF
:1015C0009093C1028093C0020C940103F999FECF5D
:1015D00092BD81BDF89A992780B50895262FF99973
:1015E000FECF1FBA92BD81BD20BD0FB6F894FA9A06
:1015F000F99A0FBE0196089597FB072E16F40094F2
:1016000007D077FD09D00E94320B07FC05D03EF4CD
:10161000909581959F4F0895709561957F4F08959E
:10162000A1E21A2EAA1BBB1BFD010DC0AA1FBB1FE6
:10163000EE1FFF1FA217B307E407F50720F0A21B58
:10164000B30BE40BF50B661F771F881F991F1A94C5
:1016500069F760957095809590959B01AC01BD01EF
:10166000CF010895AA1BBB1B51E107C0AA1FBB1FD6
:10167000A617B70710F0A61BB70B881F991F5A951E
:10168000A9F780959095BC01CD010895EE0FFF1F3D
:101690000590F491E02D099481E090E0F8940C9489
:1016A000510B10E0CDE5D0E004C0FE010E94460BD6
:0C16B0002196CE35D107C9F7F894FFCF82
:1016BC000A0B0C0E0D0F1011000000031602152B57
:1016CC00191A1C1A232204230509030A02280706E7
:1016DC00100711000C00000000050272019C015261
:1016EC0002CD01AB01BF0100000000190372017EA5
:0A16FC000217038D02AF029C0200EA
:00000001FF
